{
  "contractName": "CoinContract",
  "abi": [
    {
      "inputs": [],
      "payable": false,
      "stateMutability": "nonpayable",
      "type": "constructor"
    },
    {
      "anonymous": false,
      "inputs": [
        {
          "indexed": true,
          "internalType": "address",
          "name": "custodial",
          "type": "address"
        },
        {
          "indexed": false,
          "internalType": "string",
          "name": "senderId",
          "type": "string"
        },
        {
          "indexed": false,
          "internalType": "string",
          "name": "receiverId",
          "type": "string"
        },
        {
          "indexed": false,
          "internalType": "uint256",
          "name": "amount",
          "type": "uint256"
        }
      ],
      "name": "Transaction",
      "type": "event"
    },
    {
      "constant": true,
      "inputs": [],
      "name": "name",
      "outputs": [
        {
          "internalType": "string",
          "name": "",
          "type": "string"
        }
      ],
      "payable": false,
      "stateMutability": "pure",
      "type": "function"
    },
    {
      "constant": true,
      "inputs": [],
      "name": "symbol",
      "outputs": [
        {
          "internalType": "string",
          "name": "",
          "type": "string"
        }
      ],
      "payable": false,
      "stateMutability": "pure",
      "type": "function"
    },
    {
      "constant": false,
      "inputs": [
        {
          "internalType": "string",
          "name": "_slackId",
          "type": "string"
        },
        {
          "internalType": "uint256",
          "name": "amount",
          "type": "uint256"
        }
      ],
      "name": "burnCoin",
      "outputs": [
        {
          "internalType": "bool",
          "name": "success",
          "type": "bool"
        }
      ],
      "payable": false,
      "stateMutability": "nonpayable",
      "type": "function"
    },
    {
      "constant": false,
      "inputs": [
        {
          "internalType": "string",
          "name": "_slackId",
          "type": "string"
        },
        {
          "internalType": "uint256",
          "name": "mintAmount",
          "type": "uint256"
        }
      ],
      "name": "mintCoins",
      "outputs": [
        {
          "internalType": "bool",
          "name": "success",
          "type": "bool"
        }
      ],
      "payable": false,
      "stateMutability": "nonpayable",
      "type": "function"
    },
    {
      "constant": false,
      "inputs": [
        {
          "internalType": "string",
          "name": "_receiver",
          "type": "string"
        },
        {
          "internalType": "string",
          "name": "_sender",
          "type": "string"
        },
        {
          "internalType": "uint256",
          "name": "amount",
          "type": "uint256"
        }
      ],
      "name": "transferCoin",
      "outputs": [
        {
          "internalType": "bool",
          "name": "success",
          "type": "bool"
        }
      ],
      "payable": false,
      "stateMutability": "nonpayable",
      "type": "function"
    },
    {
      "constant": true,
      "inputs": [],
      "name": "getAccountList",
      "outputs": [
        {
          "internalType": "string[]",
          "name": "",
          "type": "string[]"
        }
      ],
      "payable": false,
      "stateMutability": "view",
      "type": "function"
    },
    {
      "constant": true,
      "inputs": [
        {
          "internalType": "string",
          "name": "_slackId",
          "type": "string"
        }
      ],
      "name": "checkSlackBalance",
      "outputs": [
        {
          "internalType": "uint256",
          "name": "amount",
          "type": "uint256"
        }
      ],
      "payable": false,
      "stateMutability": "view",
      "type": "function"
    },
    {
      "constant": true,
      "inputs": [],
      "name": "totalSupply",
      "outputs": [
        {
          "internalType": "uint256",
          "name": "",
          "type": "uint256"
        }
      ],
      "payable": false,
      "stateMutability": "view",
      "type": "function"
    }
  ],
  "bytecode": "0x60806040526040518060400160405280600481526020017f62616e6b000000000000000000000000000000000000000000000000000000008152506000908051906020019062000051929190620000e3565b503480156200005f57600080fd5b5060646001819055506064600360006040516200007d9190620002ba565b908152602001604051809103902081905550600260009080600181540180825580915050906001820390600052602060002001600090919290919091509080546001816001161561010002031660029004620000db9291906200016a565b5050620002f3565b828054600181600116156101000203166002900490600052602060002090601f016020900481019282601f106200012657805160ff191683800117855562000157565b8280016001018555821562000157579182015b828111156200015657825182559160200191906001019062000139565b5b509050620001669190620001f8565b5090565b828054600181600116156101000203166002900490600052602060002090601f016020900481019282601f10620001a55780548555620001e5565b82800160010185558215620001e557600052602060002091601f016020900482015b82811115620001e4578254825591600101919060010190620001c7565b5b509050620001f49190620001f8565b5090565b6200021d91905b8082111562000219576000816000905550600101620001ff565b5090565b90565b6000815460018116600081146200024057600181146200026857620002b2565b607f6002830416620002538187620002e8565b955060ff1983168652808601935050620002b2565b60028204620002788187620002e8565b95506200028585620002d3565b60005b82811015620002a95781548189015260018201915060208101905062000288565b82880195505050505b505092915050565b6000620002c8828462000220565b915081905092915050565b60008190508160005260206000209050919050565b600081905092915050565b610eed80620003036000396000f3fe608060405234801561001057600080fd5b50600436106100885760003560e01c8063569d045d1161005b578063569d045d1461011757806375200b8c1461014757806388a66d091461017757806395d89b41146101a757610088565b806306fdde031461008d57806318160ddd146100ab5780631989dd02146100c95780632843314e146100f9575b600080fd5b6100956101c5565b6040516100a29190610cb3565b60405180910390f35b6100b3610202565b6040516100c09190610d3a565b60405180910390f35b6100e360048036036100de9190810190610a5b565b61020c565b6040516100f09190610c98565b60405180910390f35b6101016102ad565b60405161010e9190610c76565b60405180910390f35b610131600480360361012c919081019061099b565b61039b565b60405161013e9190610d3a565b60405180910390f35b610161600480360361015c91908101906109dc565b6103c3565b60405161016e9190610c98565b60405180910390f35b610191600480360361018c9190810190610a5b565b6106cb565b60405161019e9190610c98565b60405180910390f35b6101af610850565b6040516101bc9190610cb3565b60405180910390f35b60606040518060400160405280600981526020017f6475636b546f6b656e0000000000000000000000000000000000000000000000815250905090565b6000600154905090565b60008060038460405161021f9190610c5f565b9081526020016040518091039020549050828111610272576040517f08c379a000000000000000000000000000000000000000000000000000000000815260040161026990610d1a565b60405180910390fd5b8281036003856040516102859190610c5f565b9081526020016040518091039020819055508260015403600181905550600191505092915050565b6060806002805480602002602001604051908101604052809291908181526020016000905b8282101561038e578382906000526020600020018054600181600116156101000203166002900480601f01602080910402602001604051908101604052809291908181526020018280546001816001161561010002031660029004801561037a5780601f1061034f5761010080835404028352916020019161037a565b820191906000526020600020905b81548152906001019060200180831161035d57829003601f168201915b5050505050815260200190600101906102d2565b5050505090508091505090565b60006003826040516103ad9190610c5f565b9081526020016040518091039020549050919050565b6000806003846040516103d69190610c5f565b9081526020016040518091039020549050828111610429576040517f08c379a000000000000000000000000000000000000000000000000000000000815260040161042090610d1a565b60405180910390fd5b600080905060008090505b60028054905081101561055c5760606002828154811061045057fe5b906000526020600020018054600181600116156101000203166002900480601f0160208091040260200160405190810160405280929190818152602001828054600181600116156101000203166002900480156104ee5780601f106104c3576101008083540402835291602001916104ee565b820191906000526020600020905b8154815290600101906020018083116104d157829003601f168201915b50505050509050876040516020016105069190610c5f565b604051602081830303815290604052805190602001208160405160200161052d9190610c5f565b60405160208183030381529060405280519060200120141561054e57600192505b508080600101915050610434565b506000151581151514156105fa5760028690806001815401808255809150509060018203906000526020600020016000909192909190915090805190602001906105a792919061088d565b5050600284816105b357fe5b046003866040516105c49190610c5f565b908152602001604051809103902060008282540192505081905550600284816105e957fe5b046001600082825401925050819055505b60038560405161060a9190610c5f565b908152602001604051809103902054915083820360038660405161062e9190610c5f565b908152602001604051809103902081905550836003876040516106519190610c5f565b9081526020016040518091039020600082825401925050819055503373ffffffffffffffffffffffffffffffffffffffff167fa3b2e5f7a248d8f0871222cc673a08ad2cf6522184d23ea80a158f1eaa8f7b198688876040516106b693929190610cd5565b60405180910390a26001925050509392505050565b600081600160008282540192505081905550600060028054905083816106ed57fe5b04905060008090505b6002805490508110156107f15760606002828154811061071257fe5b906000526020600020018054600181600116156101000203166002900480601f0160208091040260200160405190810160405280929190818152602001828054600181600116156101000203166002900480156107b05780601f10610785576101008083540402835291602001916107b0565b820191906000526020600020905b81548152906001019060200180831161079357829003601f168201915b50505050509050826003826040516107c89190610c5f565b9081526020016040518091039020600082825401925050819055505080806001019150506106f6565b5060006003856040516108049190610c5f565b90815260200160405180910390205490506002828161081f57fe5b0481036003866040516108329190610c5f565b90815260200160405180910390208190555060019250505092915050565b60606040518060400160405280600381526020017f41434c0000000000000000000000000000000000000000000000000000000000815250905090565b828054600181600116156101000203166002900490600052602060002090601f016020900481019282601f106108ce57805160ff19168380011785556108fc565b828001600101855582156108fc579182015b828111156108fb5782518255916020019190600101906108e0565b5b509050610909919061090d565b5090565b61092f91905b8082111561092b576000816000905550600101610913565b5090565b90565b600082601f83011261094357600080fd5b813561095661095182610d82565b610d55565b9150808252602083016020830185838301111561097257600080fd5b61097d838284610e40565b50505092915050565b60008135905061099581610e93565b92915050565b6000602082840312156109ad57600080fd5b600082013567ffffffffffffffff8111156109c757600080fd5b6109d384828501610932565b91505092915050565b6000806000606084860312156109f157600080fd5b600084013567ffffffffffffffff811115610a0b57600080fd5b610a1786828701610932565b935050602084013567ffffffffffffffff811115610a3457600080fd5b610a4086828701610932565b9250506040610a5186828701610986565b9150509250925092565b60008060408385031215610a6e57600080fd5b600083013567ffffffffffffffff811115610a8857600080fd5b610a9485828601610932565b9250506020610aa585828601610986565b9150509250929050565b6000610abb8383610bb1565b905092915050565b6000610ace82610dbe565b610ad88185610dec565b935083602082028501610aea85610dae565b8060005b85811015610b265784840389528151610b078582610aaf565b9450610b1283610ddf565b925060208a01995050600181019050610aee565b50829750879550505050505092915050565b610b4181610e2a565b82525050565b6000610b5282610dd4565b610b5c8185610e0e565b9350610b6c818560208601610e4f565b610b7581610e82565b840191505092915050565b6000610b8b82610dd4565b610b958185610e1f565b9350610ba5818560208601610e4f565b80840191505092915050565b6000610bbc82610dc9565b610bc68185610dfd565b9350610bd6818560208601610e4f565b610bdf81610e82565b840191505092915050565b6000610bf7603083610e0e565b91507f596f7520646f6e2774206861766520656e6f75676820636f696e7320666f722060008301527f74686174207472616e73616374696f6e000000000000000000000000000000006020830152604082019050919050565b610c5981610e36565b82525050565b6000610c6b8284610b80565b915081905092915050565b60006020820190508181036000830152610c908184610ac3565b905092915050565b6000602082019050610cad6000830184610b38565b92915050565b60006020820190508181036000830152610ccd8184610b47565b905092915050565b60006060820190508181036000830152610cef8186610b47565b90508181036020830152610d038185610b47565b9050610d126040830184610c50565b949350505050565b60006020820190508181036000830152610d3381610bea565b9050919050565b6000602082019050610d4f6000830184610c50565b92915050565b6000604051905081810181811067ffffffffffffffff82111715610d7857600080fd5b8060405250919050565b600067ffffffffffffffff821115610d9957600080fd5b601f19601f8301169050602081019050919050565b6000819050602082019050919050565b600081519050919050565b600081519050919050565b600081519050919050565b6000602082019050919050565b600082825260208201905092915050565b600082825260208201905092915050565b600082825260208201905092915050565b600081905092915050565b60008115159050919050565b6000819050919050565b82818337600083830152505050565b60005b83811015610e6d578082015181840152602081019050610e52565b83811115610e7c576000848401525b50505050565b6000601f19601f8301169050919050565b610e9c81610e36565b8114610ea757600080fd5b5056fea365627a7a723158209a86c43c6821bcf842570e3821629e6131b030960cb607799b2426241463fa436c6578706572696d656e74616cf564736f6c63430005100040",
  "source": "pragma solidity >=0.4.22 <0.9.0;\npragma experimental ABIEncoderV2;\n\n\ncontract CoinContract {\n    string initialMember = \"bank\";\n\n    struct SlackAcc {\n        string slackId;\n        string name;\n    } \n\n    uint256 private _totalSupply;\n    string[] slackAccounts;\n\n    event Transaction(address indexed custodial, string senderId, string receiverId, uint amount);\n\n    mapping(string => uint256)balances;\n\n\n    constructor() public{\n        _totalSupply = 100;\n        balances[initialMember] = 100;\n        slackAccounts.push(initialMember);\n    }\n\n    function name() public pure returns (string memory) {\n        return \"duckToken\";\n    }\n    function symbol() public pure returns (string memory) {\n        return \"ACL\";\n    }\n    function burnCoin(string memory _slackId, uint amount) public returns(bool success) {\n        uint burnerBalance = balances[_slackId];\n        require(burnerBalance > amount, \"You don't have enough coins for that transaction\");\n        balances[_slackId] = burnerBalance - amount;\n        _totalSupply = _totalSupply - amount;\n        return true;\n    }\n    \n    function mintCoins(string memory _slackId, uint mintAmount) public returns(bool success){\n        _totalSupply += mintAmount;\n        uint perCapita = mintAmount/slackAccounts.length;\n        for(uint i = 0; i< slackAccounts.length; i++) {\n            string memory slackId = slackAccounts[i];\n            balances[slackId] += perCapita;\n        }\n        uint minterBal = balances[_slackId];\n        balances[_slackId] = minterBal - (perCapita/2);\n        return true;\n    }   \n\n    function transferCoin(string memory _receiver, string memory _sender, uint amount) public returns (bool success){\n        uint senderBalance = balances[_sender];\n        require(senderBalance > amount, \"You don't have enough coins for that transaction\");\n        bool isInArray = false;\n        for(uint i=0; i < slackAccounts.length; i++){\n            string memory temp = slackAccounts[i];\n            if(keccak256(abi.encodePacked(temp)) == keccak256(abi.encodePacked(_receiver))) isInArray = true;\n        }\n        if(isInArray == false) {\n            slackAccounts.push(_receiver);\n            balances[_sender] += (amount/2);\n            _totalSupply += (amount/2);\n            //add an event to alert both sender and user that a new user has been sent coins\n        }\n        senderBalance = balances[_sender];\n        balances[_sender] = senderBalance - amount;\n        balances[_receiver] += amount;\n        emit Transaction(msg.sender, _sender, _receiver, amount);\n        return true;\n    }\n    function getAccountList() public view returns(string[] memory) {\n        string[] memory tempArr = slackAccounts;\n        return tempArr;\n    }   \n    function checkSlackBalance(string memory _slackId)  public view returns(uint amount) {\n        return balances[_slackId];\n    }\n\n    function totalSupply() public view returns (uint256) {\n        return _totalSupply;\n    }\n\n    // function decimals() public view returns (uint8) {\n    //     return 0;\n    // }\n    // function balanceOf(address custodial) public view returns (uint256 balance){\n    //     return balances[slackId];\n    // } \n    // function transfer(address _to, uint256 _value) public returns (bool success)\n    // function transferFrom(address _from, address _to, uint256 _value) public returns (bool success)\n    // function approve(address _spender, uint256 _value) public returns (bool success)\n    // function allowance(address _owner, address _spender) public view returns (uint256 remaining)\n\n}",
  "sourcePath": "/Users/dylanwhite/alchemy/career-track/ethDemo/contracts/CoinContract.sol",
  "compiler": {
    "name": "solc",
    "version": "0.5.16+commit.9c3226ce.Emscripten.clang"
  },
  "schemaVersion": "3.3.4",
  "updatedAt": "2021-04-23T01:17:59.061Z",
  "networkType": "ethereum",
  "devdoc": {
    "methods": {}
  },
  "userdoc": {
    "methods": {}
  }
}